:100000000C9434000C943E000C943E000C943E0082
:100010000C943E000C943E000C943E000C943E0068
:100020000C943E000C943E000C943E000C943E0058
:100030000C943E000C943E000C943E000C943E0048
:100040000C943E000C943E000C943E000C943E0038
:100050000C943E000C943E000C943E000C943E0028
:100060000C943E000C943E0011241FBECFEFD8E04C
:10007000DEBFCDBF0E9440000C9457000C940000DE
:1000800080E480937C0087EE80937A0080917B00EF
:10009000887F80937B00259A8091780090917900E9
:1000A000845F914010F02D9AF7CF2D98F5CFF894FA
:0200B000FFCF80
:00000001FF
