:100000000C9434000C943E000C943E000C943E0082
:100010000C943E000C943E000C943E000C943E0068
:100020000C943E000C943E000C943E000C943E0058
:100030000C943E000C943E000C943E000C943E0048
:100040000C943E000C943E000C943E000C943E0038
:100050000C943E000C943E000C943E000C943E0028
:100060000C943E000C943E0011241FBECFEFD8E04C
:10007000DEBFCDBF0E9440000C9459000C940000DC
:1000800080E480937C0087EE80937A0010927B005E
:10009000259A8091780090E020917900322F20E01D
:1000A000822B932B845F914014F02D9AF2CF2D98E0
:0600B000F0CFF894FFCF31
:00000001FF
