:100000000C9434000C943E000C943E000C943E0082
:100010000C943E000C943E000C943E000C943E0068
:100020000C943E000C943E000C943E000C943E0058
:100030000C943E000C943E000C943E000C943E0048
:100040000C943E000C943E000C943E000C943E0038
:100050000C943E000C943E000C943E000C943E0028
:100060000C943E000C943E0011241FBECFEFD8E04C
:10007000DEBFCDBF0E9452000C9460000C940000C3
:1000800028EE33E0829FA001839F500D929F500D78
:10009000112480E090E002C00000019684179507CB
:1000A000D8F30895259A20E285B1822785B980E0AA
:1000B00090E00000019631EA80329307D1F7F4CF47
:0400C000F894FFCFE2
:00000001FF
