:100000000C9434000C943E000C943E000C943E0082
:100010000C943E000C943E000C943E000C943E0068
:100020000C943E000C943E000C943E000C943E0058
:100030000C943E000C943E000C943E000C943E0048
:100040000C943E000C943E000C943E000C943E0038
:100050000C943E000C943E000C943E000C943E0028
:100060000C943E000C943E0011241FBECFEFD8E04C
:10007000DEBFCDBF0E9440000C946E000C940000C7
:1000800080E18093BA0084EC8093BC00259A22E33F
:1000900034EC40E28091BC0087FFFCCF8091B90036
:1000A00090E0887F9070883B910571F0893B9105C5
:1000B00024F4883A910579F407C0803C910541F019
:1000C000883C910541F404C02093BB002F5F03C01E
:1000D00085B1842785B93093BC00DCCFF894FFCF7D
:00000001FF
