:100000000C9434000C943E000C943E000C943E0082
:100010000C943E000C943E000C943E000C943E0068
:100020000C943E000C943E000C943E000C943E0058
:100030000C943E000C943E000C943E000C943E0048
:100040000C943E000C943E000C943E000C943E0038
:100050000C943E000C943E000C943E000C943E0028
:100060000C943E000C943E0011241FBECFEFD8E04C
:10007000DEBFCDBF0E9440000C9489000C940000AC
:1000800082E18093BA0084EC8093BC00259A80E4DE
:1000900080937C0087EE80937A0080917B00887F3C
:1000A00080937B00259A44EC61E050E22091780037
:1000B000309179008091BC0087FFF8CF8091B90022
:1000C00090E0887F9070883B910571F0893B9105A5
:1000D00024F4883A9105D1F407C0803C910599F049
:1000E000883C910599F40FC0245F314030F0609353
:1000F000BB004093BC002D9AD9CF1092BB00409317
:10010000BC002D98D3CF85B1852785B94093BC001D
:06011000CDCFF894FFCFF3
:00000001FF
